{
  "contractName": "NewsCrowdsale",
  "abi": [
    {
      "constant": true,
      "inputs": [
        {
          "name": "",
          "type": "uint256"
        },
        {
          "name": "",
          "type": "address"
        }
      ],
      "name": "claimed",
      "outputs": [
        {
          "name": "",
          "type": "bool"
        }
      ],
      "payable": false,
      "stateMutability": "view",
      "type": "function"
    },
    {
      "constant": true,
      "inputs": [],
      "name": "getQuantitySoldEveryDay",
      "outputs": [
        {
          "name": "",
          "type": "uint256"
        }
      ],
      "payable": false,
      "stateMutability": "view",
      "type": "function"
    },
    {
      "constant": false,
      "inputs": [
        {
          "name": "tokenAddress",
          "type": "address"
        }
      ],
      "name": "setTokenAddress",
      "outputs": [],
      "payable": false,
      "stateMutability": "nonpayable",
      "type": "function"
    },
    {
      "constant": true,
      "inputs": [],
      "name": "timeStartAuction",
      "outputs": [
        {
          "name": "",
          "type": "uint256"
        }
      ],
      "payable": false,
      "stateMutability": "view",
      "type": "function"
    },
    {
      "constant": false,
      "inputs": [
        {
          "name": "day",
          "type": "uint256"
        }
      ],
      "name": "claim",
      "outputs": [],
      "payable": false,
      "stateMutability": "nonpayable",
      "type": "function"
    },
    {
      "constant": true,
      "inputs": [],
      "name": "getCurrentDay",
      "outputs": [
        {
          "name": "",
          "type": "uint256"
        }
      ],
      "payable": false,
      "stateMutability": "view",
      "type": "function"
    },
    {
      "constant": true,
      "inputs": [
        {
          "name": "",
          "type": "uint256"
        }
      ],
      "name": "dayAuction",
      "outputs": [
        {
          "name": "",
          "type": "uint256"
        }
      ],
      "payable": false,
      "stateMutability": "view",
      "type": "function"
    },
    {
      "constant": true,
      "inputs": [],
      "name": "getNumberOfAuctionDays",
      "outputs": [
        {
          "name": "",
          "type": "uint256"
        }
      ],
      "payable": false,
      "stateMutability": "view",
      "type": "function"
    },
    {
      "constant": true,
      "inputs": [
        {
          "name": "",
          "type": "uint256"
        }
      ],
      "name": "dailyTotals",
      "outputs": [
        {
          "name": "",
          "type": "uint256"
        }
      ],
      "payable": false,
      "stateMutability": "view",
      "type": "function"
    },
    {
      "constant": false,
      "inputs": [],
      "name": "initDays",
      "outputs": [],
      "payable": false,
      "stateMutability": "nonpayable",
      "type": "function"
    },
    {
      "constant": true,
      "inputs": [],
      "name": "ownerWallet",
      "outputs": [
        {
          "name": "",
          "type": "address"
        }
      ],
      "payable": false,
      "stateMutability": "view",
      "type": "function"
    },
    {
      "constant": false,
      "inputs": [],
      "name": "buy",
      "outputs": [],
      "payable": true,
      "stateMutability": "payable",
      "type": "function"
    },
    {
      "constant": true,
      "inputs": [
        {
          "name": "",
          "type": "uint256"
        }
      ],
      "name": "daysBreakOver",
      "outputs": [
        {
          "name": "",
          "type": "uint256"
        }
      ],
      "payable": false,
      "stateMutability": "view",
      "type": "function"
    },
    {
      "constant": false,
      "inputs": [],
      "name": "claimAll",
      "outputs": [],
      "payable": false,
      "stateMutability": "nonpayable",
      "type": "function"
    },
    {
      "constant": true,
      "inputs": [
        {
          "name": "",
          "type": "uint256"
        },
        {
          "name": "",
          "type": "address"
        }
      ],
      "name": "userContribution",
      "outputs": [
        {
          "name": "",
          "type": "uint256"
        }
      ],
      "payable": false,
      "stateMutability": "view",
      "type": "function"
    },
    {
      "constant": true,
      "inputs": [],
      "name": "timeDeploy",
      "outputs": [
        {
          "name": "",
          "type": "uint256"
        }
      ],
      "payable": false,
      "stateMutability": "view",
      "type": "function"
    },
    {
      "constant": true,
      "inputs": [],
      "name": "timeFinalizeAuction",
      "outputs": [
        {
          "name": "",
          "type": "uint256"
        }
      ],
      "payable": false,
      "stateMutability": "view",
      "type": "function"
    },
    {
      "constant": true,
      "inputs": [],
      "name": "token",
      "outputs": [
        {
          "name": "",
          "type": "address"
        }
      ],
      "payable": false,
      "stateMutability": "view",
      "type": "function"
    },
    {
      "inputs": [],
      "payable": false,
      "stateMutability": "nonpayable",
      "type": "constructor"
    },
    {
      "payable": true,
      "stateMutability": "payable",
      "type": "fallback"
    },
    {
      "anonymous": false,
      "inputs": [
        {
          "indexed": false,
          "name": "window",
          "type": "uint256"
        },
        {
          "indexed": false,
          "name": "user",
          "type": "address"
        },
        {
          "indexed": false,
          "name": "amount",
          "type": "uint256"
        }
      ],
      "name": "Buy",
      "type": "event"
    },
    {
      "anonymous": false,
      "inputs": [
        {
          "indexed": false,
          "name": "window",
          "type": "uint256"
        },
        {
          "indexed": false,
          "name": "user",
          "type": "address"
        },
        {
          "indexed": false,
          "name": "amount",
          "type": "uint256"
        }
      ],
      "name": "Claim",
      "type": "event"
    }
  ],
  "bytecode": "0x60606040526000600b55341561001457600080fd5b60a0600581905550600a6006819055506000600981905550670de0b6b3a7640000600a81905550426001819055506269780060015401600c60006001815260200190815260200160002081905550600c60006001815260200190815260200160002054600281905550610e598061008c6000396000f3006060604052600436106100fc576000357c0100000000000000000000000000000000000000000000000000000000900463ffffffff168063120aa8771461010657806314466aa11461016057806326a4e8d2146101895780632a47b022146101c2578063379607f5146101eb5780633e6968b61461020e5780635b1523db14610237578063752659761461026e5780637d34f5ac1461029757806390efe7f1146102ce5780639335dcb7146102e3578063a6f2ae3a14610338578063c32c562814610342578063d1058e5914610379578063e9b7fed41461038e578063ea4392dc146103e4578063fbac8d581461040d578063fc0c546a14610436575b61010461048b565b005b341561011157600080fd5b610146600480803590602001909190803573ffffffffffffffffffffffffffffffffffffffff16906020019091905050610626565b604051808215151515815260200191505060405180910390f35b341561016b57600080fd5b610173610655565b6040518082815260200191505060405180910390f35b341561019457600080fd5b6101c0600480803573ffffffffffffffffffffffffffffffffffffffff16906020019091905050610679565b005b34156101cd57600080fd5b6101d561080e565b6040518082815260200191505060405180910390f35b34156101f657600080fd5b61020c6004808035906020019091905050610814565b005b341561021957600080fd5b610221610b02565b6040518082815260200191505060405180910390f35b341561024257600080fd5b6102586004808035906020019091905050610b3d565b6040518082815260200191505060405180910390f35b341561027957600080fd5b610281610b55565b6040518082815260200191505060405180910390f35b34156102a257600080fd5b6102b86004808035906020019091905050610b5f565b6040518082815260200191505060405180910390f35b34156102d957600080fd5b6102e1610b77565b005b34156102ee57600080fd5b6102f6610c9e565b604051808273ffffffffffffffffffffffffffffffffffffffff1673ffffffffffffffffffffffffffffffffffffffff16815260200191505060405180910390f35b61034061048b565b005b341561034d57600080fd5b6103636004808035906020019091905050610cc4565b6040518082815260200191505060405180910390f35b341561038457600080fd5b61038c610cdc565b005b341561039957600080fd5b6103ce600480803590602001909190803573ffffffffffffffffffffffffffffffffffffffff16906020019091905050610d07565b6040518082815260200191505060405180910390f35b34156103ef57600080fd5b6103f7610d2c565b6040518082815260200191505060405180910390f35b341561041857600080fd5b610420610d32565b6040518082815260200191505060405180910390f35b341561044157600080fd5b610449610d38565b604051808273ffffffffffffffffffffffffffffffffffffffff1673ffffffffffffffffffffffffffffffffffffffff16815260200191505060405180910390f35b600060025442101580156104a157506003544211155b15156104ac57600080fd5b4290506104b881610d5d565b6104c181610dd8565b15156104c957fe5b34600f6000600954815260200190815260200160002060003373ffffffffffffffffffffffffffffffffffffffff1673ffffffffffffffffffffffffffffffffffffffff1681526020019081526020016000206000828254019250508190555034600e6000600954815260200190815260200160002060008282540192505081905550600460009054906101000a900473ffffffffffffffffffffffffffffffffffffffff1673ffffffffffffffffffffffffffffffffffffffff166108fc349081150290604051600060405180830381858888f1935050505015156105ae57600080fd5b7f3b599f6217e39be59216b60e543ce0d4c7d534fe64dd9d962334924e7819894e6009543334604051808481526020018373ffffffffffffffffffffffffffffffffffffffff1673ffffffffffffffffffffffffffffffffffffffff168152602001828152602001935050505060405180910390a150565b60106020528160005260406000206020528060005260406000206000915091509054906101000a900460ff1681565b6000600a5460055460085481151561066957fe5b0481151561067357fe5b04905090565b600073ffffffffffffffffffffffffffffffffffffffff166000809054906101000a900473ffffffffffffffffffffffffffffffffffffffff1673ffffffffffffffffffffffffffffffffffffffff161415156106d557600080fd5b806000806101000a81548173ffffffffffffffffffffffffffffffffffffffff021916908373ffffffffffffffffffffffffffffffffffffffff160217905550600a546005546000809054906101000a900473ffffffffffffffffffffffffffffffffffffffff1673ffffffffffffffffffffffffffffffffffffffff166370a08231306000604051602001526040518263ffffffff167c0100000000000000000000000000000000000000000000000000000000028152600401808273ffffffffffffffffffffffffffffffffffffffff1673ffffffffffffffffffffffffffffffffffffffff168152602001915050602060405180830381600087803b15156107df57600080fd5b6102c65a03f115156107f057600080fd5b5050506040518051905081151561080357fe5b040260088190555050565b60025481565b60008060006010600085815260200190815260200160002060003373ffffffffffffffffffffffffffffffffffffffff1673ffffffffffffffffffffffffffffffffffffffff16815260200190815260200160002060009054906101000a900460ff168061089557506000600e600086815260200190815260200160002054145b1561089f57610afc565b836009541115156108af57600080fd5b600e6000858152602001908152602001600020546008548115156108cf57fe5b049250600f600085815260200190815260200160002060003373ffffffffffffffffffffffffffffffffffffffff1673ffffffffffffffffffffffffffffffffffffffff1681526020019081526020016000205483029150600a548281151561093457fe5b04905060016010600086815260200190815260200160002060003373ffffffffffffffffffffffffffffffffffffffff1673ffffffffffffffffffffffffffffffffffffffff16815260200190815260200160002060006101000a81548160ff0219169083151502179055506000809054906101000a900473ffffffffffffffffffffffffffffffffffffffff1673ffffffffffffffffffffffffffffffffffffffff1663a9059cbb33836000604051602001526040518363ffffffff167c0100000000000000000000000000000000000000000000000000000000028152600401808373ffffffffffffffffffffffffffffffffffffffff1673ffffffffffffffffffffffffffffffffffffffff16815260200182815260200192505050602060405180830381600087803b1515610a6c57600080fd5b6102c65a03f11515610a7d57600080fd5b50505060405180519050507f3ed1528b0fdc7c5207c1bf935e34a667e13656b9ed165260c522be0bc544f303843383604051808481526020018373ffffffffffffffffffffffffffffffffffffffff1673ffffffffffffffffffffffffffffffffffffffff168152602001828152602001935050505060405180910390a15b50505050565b60008060095490505b600c600060018301815260200190815260200160002054421115610b36578080600101915050610b0b565b8091505090565b600c6020528060005260406000206000915090505481565b6000600554905090565b600e6020528060005260406000206000915090505481565b6000806000600354141515610b8b57600080fd5b600191505b600554821015610c7157600190505b600654811015610bed5762015180600c600060018486010381526020019081526020016000205401600c60008385018152602001908152602001600020819055508080600101915050610b9f565b8082019150626ac980600c60006001850381526020019081526020016000205401600c60008481526020019081526020016000208190555062015180600c60006001850381526020019081526020016000205401600d6000600b54815260200190815260200160002081905550600b60008154809291906001019190505550610b90565b6000600b8190555062015180600c6000600554815260200190815260200160002054016003819055505050565b600460009054906101000a900473ffffffffffffffffffffffffffffffffffffffff1681565b600d6020528060005260406000206000915090505481565b6000600190505b60095481111515610d0457610cf781610814565b8080600101915050610ce3565b50565b600f602052816000526040600020602052806000526040600020600091509150505481565b60015481565b60035481565b6000809054906101000a900473ffffffffffffffffffffffffffffffffffffffff1681565b5b600c60006001600954018152602001908152602001600020548110158015610d895750600554600954105b15610da557600960008154809291906001019190505550610d5e565b6000600654600954811515610db657fe5b06141515610dd557600654600954811515610dcd57fe5b04600b819055505b50565b6000600d6000600b5481526020019081526020016000205482118015610e155750600c600060016009540181526020019081526020016000205482105b15610e235760009050610e28565b600190505b9190505600a165627a7a72305820754e0b05eaa744d96b013c5376788aa4e1dace0f47bbe69d3cfe898b1b005be30029",
  "source": "pragma solidity ^0.4.18;\r\n\r\nimport \"./NewsToken.sol\";\r\n \r\n \r\ncontract IToken {\r\n    function balanceOf(address who) public view returns (uint256);\r\n    function transfer(address to, uint256 value) public returns (bool);\r\n}\r\n\r\ncontract NewsCrowdsale {\r\n    \r\n    address public token;\r\n    \r\n    uint public timeDeploy;\r\n    uint public timeStartAuction; \r\n    uint public timeFinalizeAuction;  \r\n     \r\n    address public ownerWallet;\r\n    \r\n    uint numOf_AllDays;\r\n    uint numOf_AuctionDays;\r\n    uint numOf_BreakOverDays;\r\n    uint amountSellPerDay;\r\n    uint curDay;  \r\n\r\n    uint decimalVar;\r\n    uint breakOverCounter = 0;\r\n    \r\n    mapping (uint => uint) public dayAuction;\r\n    mapping (uint => uint) public daysBreakOver;\r\n    mapping (uint => uint) public dailyTotals;\r\n    \r\n    mapping (uint => mapping (address => uint)) public userContribution;\r\n    mapping (uint => mapping (address => bool)) public claimed;\r\n    \r\n    event Buy (uint window, address user, uint amount);\r\n    event Claim (uint window, address user, uint amount); \r\n    \r\n    modifier auctionActive() {\r\n        require(now >= timeStartAuction && now <= timeFinalizeAuction);\r\n        _;\r\n    } \r\n     \r\n    function NewsCrowdsale() public { \r\n        \r\n        numOf_AllDays = 160;\r\n        numOf_AuctionDays = 10;\r\n        curDay = 0; \r\n        decimalVar = 1 ether; \r\n          \r\n        timeDeploy = now;\r\n        dayAuction[1] = timeDeploy + 80 days; \r\n        timeStartAuction = dayAuction[1]; \r\n    }\r\n\r\n    function setTokenAddress(address tokenAddress) public {\r\n        require(token == address(0));\r\n        token = tokenAddress;\r\n\r\n        amountSellPerDay = IToken(token).balanceOf(this) / numOf_AllDays * decimalVar;\r\n    }\r\n     \r\n    \r\n    function initDays() public {\r\n        require(timeFinalizeAuction == 0);\r\n        \r\n        uint i = 1;\r\n        while (i < numOf_AllDays) {  \r\n            \r\n            uint j = 1;\r\n            for (;j < numOf_AuctionDays; j++) {\r\n                dayAuction[i + j] = dayAuction[i + j - 1] + 1 days; \r\n            }\r\n            i += j;\r\n            \r\n            dayAuction[i] = dayAuction[i - 1] + 81 days; \r\n            daysBreakOver[breakOverCounter] = dayAuction[i-1] + 1 days;\r\n            breakOverCounter++; \r\n        } \r\n        \r\n        breakOverCounter = 0; \r\n        timeFinalizeAuction = dayAuction[numOf_AllDays] + 1 days;\r\n    }\r\n    \r\n    function () payable external {\r\n       buy();\r\n    }  \r\n    \r\n    function buy() payable public auctionActive {  \r\n        uint today = now; \r\n\r\n        setCurrentDay(today);\r\n        assert(notPause(today));\r\n \r\n        userContribution[curDay][msg.sender] += msg.value;\r\n        dailyTotals[curDay] += msg.value; \r\n        \r\n        ownerWallet.transfer(msg.value);\r\n        \r\n        Buy(curDay, msg.sender, msg.value);\r\n    } \r\n    \r\n    function setCurrentDay(uint today) private {\r\n        while (today >= dayAuction[curDay + 1] && curDay < numOf_AllDays) {\r\n            curDay++;\r\n        }  \r\n        if (curDay % numOf_AuctionDays != 0) {\r\n            breakOverCounter = curDay / numOf_AuctionDays;\r\n        } \r\n    }\r\n\r\n    function notPause(uint _now) private returns(bool) {\r\n        if (_now > daysBreakOver[breakOverCounter] && _now < dayAuction[curDay + 1] ) {\r\n            return false;\r\n        }\r\n        return true;\r\n    }\r\n    \r\n     function claim(uint day) public { \r\n        if (claimed[day][msg.sender] || dailyTotals[day] == 0) {\r\n            return;\r\n        }\r\n        \r\n        require(curDay > day);\r\n        \r\n        uint price        = amountSellPerDay / dailyTotals[day];\r\n        uint userPersent  = price * userContribution[day][msg.sender];\r\n        uint reward       = userPersent / decimalVar; \r\n\r\n        claimed[day][msg.sender] = true;\r\n        IToken(token).transfer(msg.sender, reward);\r\n\r\n        Claim(day, msg.sender, reward);\r\n    } \r\n\r\n    function claimAll() external { \r\n        for (uint i = 1; i <= curDay; i++) {\r\n            claim(i);\r\n        } \r\n    }  \r\n\r\n    function getQuantitySoldEveryDay() public view returns(uint) {\r\n        return amountSellPerDay / numOf_AllDays / decimalVar;\r\n    } \r\n    \r\n    function getCurrentDay() public view returns(uint) {\r\n        uint dayCounter = curDay;\r\n        \r\n        while (now > dayAuction[dayCounter + 1]) {\r\n            dayCounter++;\r\n        } \r\n        return dayCounter;\r\n    }\r\n\r\n    function getNumberOfAuctionDays() public view returns(uint) {\r\n        return numOf_AllDays;\r\n    }\r\n}",
  "sourcePath": "F:\\Ethereum_data\\_My_Scripts_ICO\\Illuminates_NewsToken\\illuminates_2\\contracts\\NewsCrowdsale_oldVersion.sol",
  "compiler": {
    "name": "solc",
    "version": "0.4.18+commit.9cf6e910.Emscripten.clang"
  },
  "schemaVersion": "1.0.1",
  "updatedAt": "2018-03-17T12:21:47.629Z"
}