{
  "contractName": "TESTNewsCrowdsale",
  "abi": [
    {
      "constant": true,
      "inputs": [
        {
          "name": "",
          "type": "uint256"
        },
        {
          "name": "",
          "type": "address"
        }
      ],
      "name": "claimed",
      "outputs": [
        {
          "name": "",
          "type": "bool"
        }
      ],
      "payable": false,
      "stateMutability": "view",
      "type": "function"
    },
    {
      "constant": false,
      "inputs": [],
      "name": "testClaimAll",
      "outputs": [],
      "payable": false,
      "stateMutability": "nonpayable",
      "type": "function"
    },
    {
      "constant": true,
      "inputs": [],
      "name": "amountSellPerDay",
      "outputs": [
        {
          "name": "",
          "type": "uint256"
        }
      ],
      "payable": false,
      "stateMutability": "view",
      "type": "function"
    },
    {
      "constant": true,
      "inputs": [],
      "name": "getQuantitySoldEveryDay",
      "outputs": [
        {
          "name": "",
          "type": "uint256"
        }
      ],
      "payable": false,
      "stateMutability": "view",
      "type": "function"
    },
    {
      "constant": false,
      "inputs": [],
      "name": "time",
      "outputs": [
        {
          "name": "",
          "type": "uint256"
        }
      ],
      "payable": false,
      "stateMutability": "nonpayable",
      "type": "function"
    },
    {
      "constant": false,
      "inputs": [
        {
          "name": "tokenAddress",
          "type": "address"
        }
      ],
      "name": "setTokenAddress",
      "outputs": [],
      "payable": false,
      "stateMutability": "nonpayable",
      "type": "function"
    },
    {
      "constant": true,
      "inputs": [],
      "name": "timeStartAuction",
      "outputs": [
        {
          "name": "",
          "type": "uint256"
        }
      ],
      "payable": false,
      "stateMutability": "view",
      "type": "function"
    },
    {
      "constant": true,
      "inputs": [],
      "name": "getCurrentDay",
      "outputs": [
        {
          "name": "",
          "type": "uint256"
        }
      ],
      "payable": false,
      "stateMutability": "view",
      "type": "function"
    },
    {
      "constant": true,
      "inputs": [
        {
          "name": "",
          "type": "uint256"
        }
      ],
      "name": "dayAuction",
      "outputs": [
        {
          "name": "",
          "type": "uint256"
        }
      ],
      "payable": false,
      "stateMutability": "view",
      "type": "function"
    },
    {
      "constant": true,
      "inputs": [],
      "name": "numOf_AuctionDays",
      "outputs": [
        {
          "name": "",
          "type": "uint256"
        }
      ],
      "payable": false,
      "stateMutability": "view",
      "type": "function"
    },
    {
      "constant": true,
      "inputs": [],
      "name": "numOf_AllDays",
      "outputs": [
        {
          "name": "",
          "type": "uint256"
        }
      ],
      "payable": false,
      "stateMutability": "view",
      "type": "function"
    },
    {
      "constant": false,
      "inputs": [
        {
          "name": "_i",
          "type": "uint256"
        }
      ],
      "name": "updateTime",
      "outputs": [],
      "payable": false,
      "stateMutability": "nonpayable",
      "type": "function"
    },
    {
      "constant": true,
      "inputs": [],
      "name": "getNumberOfAuctionDays",
      "outputs": [
        {
          "name": "",
          "type": "uint256"
        }
      ],
      "payable": false,
      "stateMutability": "view",
      "type": "function"
    },
    {
      "constant": true,
      "inputs": [
        {
          "name": "",
          "type": "uint256"
        }
      ],
      "name": "dailyTotals",
      "outputs": [
        {
          "name": "",
          "type": "uint256"
        }
      ],
      "payable": false,
      "stateMutability": "view",
      "type": "function"
    },
    {
      "constant": false,
      "inputs": [],
      "name": "initDays",
      "outputs": [],
      "payable": false,
      "stateMutability": "nonpayable",
      "type": "function"
    },
    {
      "constant": true,
      "inputs": [],
      "name": "ownerWallet",
      "outputs": [
        {
          "name": "",
          "type": "address"
        }
      ],
      "payable": false,
      "stateMutability": "view",
      "type": "function"
    },
    {
      "constant": false,
      "inputs": [
        {
          "name": "day",
          "type": "uint256"
        }
      ],
      "name": "testSetUserContribut",
      "outputs": [],
      "payable": true,
      "stateMutability": "payable",
      "type": "function"
    },
    {
      "constant": false,
      "inputs": [
        {
          "name": "day",
          "type": "uint256"
        }
      ],
      "name": "testClaim",
      "outputs": [],
      "payable": false,
      "stateMutability": "nonpayable",
      "type": "function"
    },
    {
      "constant": false,
      "inputs": [],
      "name": "getNowTime",
      "outputs": [
        {
          "name": "",
          "type": "uint256"
        }
      ],
      "payable": false,
      "stateMutability": "nonpayable",
      "type": "function"
    },
    {
      "constant": false,
      "inputs": [],
      "name": "buy",
      "outputs": [],
      "payable": true,
      "stateMutability": "payable",
      "type": "function"
    },
    {
      "constant": true,
      "inputs": [
        {
          "name": "",
          "type": "uint256"
        }
      ],
      "name": "daysBreakOver",
      "outputs": [
        {
          "name": "",
          "type": "uint256"
        }
      ],
      "payable": false,
      "stateMutability": "view",
      "type": "function"
    },
    {
      "constant": false,
      "inputs": [],
      "name": "TestinitDays",
      "outputs": [],
      "payable": false,
      "stateMutability": "nonpayable",
      "type": "function"
    },
    {
      "constant": true,
      "inputs": [],
      "name": "curDay",
      "outputs": [
        {
          "name": "",
          "type": "uint256"
        }
      ],
      "payable": false,
      "stateMutability": "view",
      "type": "function"
    },
    {
      "constant": true,
      "inputs": [
        {
          "name": "",
          "type": "uint256"
        },
        {
          "name": "",
          "type": "address"
        }
      ],
      "name": "userContribution",
      "outputs": [
        {
          "name": "",
          "type": "uint256"
        }
      ],
      "payable": false,
      "stateMutability": "view",
      "type": "function"
    },
    {
      "constant": true,
      "inputs": [],
      "name": "timeDeploy",
      "outputs": [
        {
          "name": "",
          "type": "uint256"
        }
      ],
      "payable": false,
      "stateMutability": "view",
      "type": "function"
    },
    {
      "constant": true,
      "inputs": [],
      "name": "timeFinalizeAuction",
      "outputs": [
        {
          "name": "",
          "type": "uint256"
        }
      ],
      "payable": false,
      "stateMutability": "view",
      "type": "function"
    },
    {
      "constant": true,
      "inputs": [],
      "name": "token",
      "outputs": [
        {
          "name": "",
          "type": "address"
        }
      ],
      "payable": false,
      "stateMutability": "view",
      "type": "function"
    },
    {
      "inputs": [],
      "payable": false,
      "stateMutability": "nonpayable",
      "type": "constructor"
    },
    {
      "payable": true,
      "stateMutability": "payable",
      "type": "fallback"
    },
    {
      "anonymous": false,
      "inputs": [
        {
          "indexed": false,
          "name": "window",
          "type": "uint256"
        },
        {
          "indexed": false,
          "name": "user",
          "type": "address"
        },
        {
          "indexed": false,
          "name": "amount",
          "type": "uint256"
        }
      ],
      "name": "Buy",
      "type": "event"
    },
    {
      "anonymous": false,
      "inputs": [
        {
          "indexed": false,
          "name": "window",
          "type": "uint256"
        },
        {
          "indexed": false,
          "name": "user",
          "type": "address"
        },
        {
          "indexed": false,
          "name": "amount",
          "type": "uint256"
        }
      ],
      "name": "Claim",
      "type": "event"
    }
  ],
  "bytecode": "0x60606040526000600b55341561001457600080fd5b610031600061009964010000000002610a5e176401000000009004565b60a06006819055506000600981905550670de0b6b3a7640000600a819055506000546002819055506269780060025401600c60006001815260200190815260200160002081905550600c600060018152602001908152602001600020546003819055506100aa565b620151808102420160008190555050565b61125c806100b96000396000f30060606040526004361061015f576000357c0100000000000000000000000000000000000000000000000000000000900463ffffffff168063120aa87714610169578063124b854e146101c357806313ac3e7e146101d857806314466aa11461020157806316ada5471461022a57806326a4e8d2146102535780632a47b0221461028c5780633e6968b6146102b55780635b1523db146102de5780635e5f5ede1461031557806368404bcb1461033e5780636c59bd0c14610367578063752659761461038a5780637d34f5ac146103b357806390efe7f1146103ea5780639335dcb7146103ff57806394e875a81461045457806395fe0d861461046c5780639b819d381461048f578063a6f2ae3a146104b8578063c32c5628146104c2578063e12649e2146104f9578063e4b612441461050e578063e9b7fed414610537578063ea4392dc1461058d578063fbac8d58146105b6578063fc0c546a146105df575b610167610634565b005b341561017457600080fd5b6101a9600480803590602001909190803573ffffffffffffffffffffffffffffffffffffffff169060200190919050506107d5565b604051808215151515815260200191505060405180910390f35b34156101ce57600080fd5b6101d6610804565b005b34156101e357600080fd5b6101eb61082f565b6040518082815260200191505060405180910390f35b341561020c57600080fd5b610214610835565b6040518082815260200191505060405180910390f35b341561023557600080fd5b61023d610859565b6040518082815260200191505060405180910390f35b341561025e57600080fd5b61028a600480803573ffffffffffffffffffffffffffffffffffffffff16906020019091905050610861565b005b341561029757600080fd5b61029f6109f9565b6040518082815260200191505060405180910390f35b34156102c057600080fd5b6102c86109ff565b6040518082815260200191505060405180910390f35b34156102e957600080fd5b6102ff6004808035906020019091905050610a3a565b6040518082815260200191505060405180910390f35b341561032057600080fd5b610328610a52565b6040518082815260200191505060405180910390f35b341561034957600080fd5b610351610a58565b6040518082815260200191505060405180910390f35b341561037257600080fd5b6103886004808035906020019091905050610a5e565b005b341561039557600080fd5b61039d610a6f565b6040518082815260200191505060405180910390f35b34156103be57600080fd5b6103d46004808035906020019091905050610a79565b6040518082815260200191505060405180910390f35b34156103f557600080fd5b6103fd610a91565b005b341561040a57600080fd5b610412610bb8565b604051808273ffffffffffffffffffffffffffffffffffffffff1673ffffffffffffffffffffffffffffffffffffffff16815260200191505060405180910390f35b61046a6004808035906020019091905050610bde565b005b341561047757600080fd5b61048d6004808035906020019091905050610ce6565b005b341561049a57600080fd5b6104a2610fc5565b6040518082815260200191505060405180910390f35b6104c0610634565b005b34156104cd57600080fd5b6104e36004808035906020019091905050610fce565b6040518082815260200191505060405180910390f35b341561050457600080fd5b61050c610fe6565b005b341561051957600080fd5b610521611103565b6040518082815260200191505060405180910390f35b341561054257600080fd5b610577600480803590602001909190803573ffffffffffffffffffffffffffffffffffffffff16906020019091905050611109565b6040518082815260200191505060405180910390f35b341561059857600080fd5b6105a061112e565b6040518082815260200191505060405180910390f35b34156105c157600080fd5b6105c9611134565b6040518082815260200191505060405180910390f35b34156105ea57600080fd5b6105f261113a565b604051808273ffffffffffffffffffffffffffffffffffffffff1673ffffffffffffffffffffffffffffffffffffffff16815260200191505060405180910390f35b60006003546000541015801561064e575060045460005411155b151561065957600080fd5b600054905061066781611160565b610670816111db565b151561067857fe5b34600f6000600954815260200190815260200160002060003373ffffffffffffffffffffffffffffffffffffffff1673ffffffffffffffffffffffffffffffffffffffff1681526020019081526020016000206000828254019250508190555034600e6000600954815260200190815260200160002060008282540192505081905550600560009054906101000a900473ffffffffffffffffffffffffffffffffffffffff1673ffffffffffffffffffffffffffffffffffffffff166108fc349081150290604051600060405180830381858888f19350505050151561075d57600080fd5b7f3b599f6217e39be59216b60e543ce0d4c7d534fe64dd9d962334924e7819894e6009543334604051808481526020018373ffffffffffffffffffffffffffffffffffffffff1673ffffffffffffffffffffffffffffffffffffffff168152602001828152602001935050505060405180910390a150565b60106020528160005260406000206020528060005260406000206000915091509054906101000a900460ff1681565b6000600190505b6011548111151561082c5761081f81610ce6565b808060010191505061080b565b50565b60085481565b6000600a5460065460085481151561084957fe5b0481151561085357fe5b04905090565b600042905090565b600073ffffffffffffffffffffffffffffffffffffffff16600160009054906101000a900473ffffffffffffffffffffffffffffffffffffffff1673ffffffffffffffffffffffffffffffffffffffff161415156108be57600080fd5b80600160006101000a81548173ffffffffffffffffffffffffffffffffffffffff021916908373ffffffffffffffffffffffffffffffffffffffff160217905550600a54600654600160009054906101000a900473ffffffffffffffffffffffffffffffffffffffff1673ffffffffffffffffffffffffffffffffffffffff166370a08231306000604051602001526040518263ffffffff167c0100000000000000000000000000000000000000000000000000000000028152600401808273ffffffffffffffffffffffffffffffffffffffff1673ffffffffffffffffffffffffffffffffffffffff168152602001915050602060405180830381600087803b15156109ca57600080fd5b6102c65a03f115156109db57600080fd5b505050604051805190508115156109ee57fe5b040260088190555050565b60035481565b60008060095490505b600c600060018301815260200190815260200160002054421115610a33578080600101915050610a08565b8091505090565b600c6020528060005260406000206000915090505481565b60075481565b60065481565b620151808102420160008190555050565b6000600654905090565b600e6020528060005260406000206000915090505481565b6000806000600454141515610aa557600080fd5b600191505b600654821015610b8b57600190505b600754811015610b075762015180600c600060018486010381526020019081526020016000205401600c60008385018152602001908152602001600020819055508080600101915050610ab9565b8082019150626ac980600c60006001850381526020019081526020016000205401600c60008481526020019081526020016000208190555062015180600c60006001850381526020019081526020016000205401600d6000600b54815260200190815260200160002081905550600b60008154809291906001019190505550610aaa565b6000600b8190555062015180600c6000600654815260200190815260200160002054016004819055505050565b600560009054906101000a900473ffffffffffffffffffffffffffffffffffffffff1681565b34600f600083815260200190815260200160002060003373ffffffffffffffffffffffffffffffffffffffff1673ffffffffffffffffffffffffffffffffffffffff1681526020019081526020016000206000828254019250508190555034600e6000838152602001908152602001600020600082825401925050819055507f3b599f6217e39be59216b60e543ce0d4c7d534fe64dd9d962334924e7819894e6009543334604051808481526020018373ffffffffffffffffffffffffffffffffffffffff1673ffffffffffffffffffffffffffffffffffffffff168152602001828152602001935050505060405180910390a1806011819055506001810160098190555050565b60008060006010600085815260200190815260200160002060003373ffffffffffffffffffffffffffffffffffffffff1673ffffffffffffffffffffffffffffffffffffffff16815260200190815260200160002060009054906101000a900460ff1680610d6757506000600e600086815260200190815260200160002054145b15610d7157610fbf565b600e600085815260200190815260200160002054600854811515610d9157fe5b049250600f600085815260200190815260200160002060003373ffffffffffffffffffffffffffffffffffffffff1673ffffffffffffffffffffffffffffffffffffffff1681526020019081526020016000205483029150600a5482811515610df657fe5b04905060016010600086815260200190815260200160002060003373ffffffffffffffffffffffffffffffffffffffff1673ffffffffffffffffffffffffffffffffffffffff16815260200190815260200160002060006101000a81548160ff021916908315150217905550600160009054906101000a900473ffffffffffffffffffffffffffffffffffffffff1673ffffffffffffffffffffffffffffffffffffffff1663a9059cbb33836000604051602001526040518363ffffffff167c0100000000000000000000000000000000000000000000000000000000028152600401808373ffffffffffffffffffffffffffffffffffffffff1673ffffffffffffffffffffffffffffffffffffffff16815260200182815260200192505050602060405180830381600087803b1515610f2f57600080fd5b6102c65a03f11515610f4057600080fd5b50505060405180519050507f3ed1528b0fdc7c5207c1bf935e34a667e13656b9ed165260c522be0bc544f303843383604051808481526020018373ffffffffffffffffffffffffffffffffffffffff1673ffffffffffffffffffffffffffffffffffffffff168152602001828152602001935050505060405180910390a15b50505050565b60008054905090565b600d6020528060005260406000206000915090505481565b6000806000600454141515610ffa57600080fd5b600190505b6006548110156110d957600191505b600a821015611059576001600c600060018585010381526020019081526020016000205401600c6000848401815260200190815260200160002081905550818060010192505061100e565b81810190506051600c60006001840381526020019081526020016000205401600c6000838152602001908152602001600020819055506001600c60006001840381526020019081526020016000205401600d6000600b54815260200190815260200160002081905550600b60008154809291906001019190505550610fff565b6000600b819055506001600c600060a0815260200190815260200160002054016004819055505050565b60095481565b600f602052816000526040600020602052806000526040600020600091509150505481565b60025481565b60045481565b600160009054906101000a900473ffffffffffffffffffffffffffffffffffffffff1681565b5b600c6000600160095401815260200190815260200160002054811015801561118c5750600654600954105b156111a857600960008154809291906001019190505550611161565b60006007546009548115156111b957fe5b061415156111d8576007546009548115156111d057fe5b04600b819055505b50565b6000600d6000600b54815260200190815260200160002054821180156112185750600c600060016009540181526020019081526020016000205482105b15611226576000905061122b565b600190505b9190505600a165627a7a723058204051ea8b2454432542f732db8246125a0b42b2b1e5ed050b5e298047d3991f340029",
  "source": "pragma solidity ^0.4.18;\r\n\r\nimport \"./NewsToken.sol\";\r\n \r\n \r\ncontract IToken {\r\n    function balanceOf(address who) public view returns (uint256);\r\n    function transfer(address to, uint256 value) public returns (bool);\r\n}\r\n\r\ncontract TESTNewsCrowdsale {\r\n\r\n    uint NowTime;\r\n \r\n    address public token;\r\n    \r\n   uint public timeDeploy;\r\n    uint public timeStartAuction; \r\n    uint public timeFinalizeAuction;  \r\n     \r\n    address public ownerWallet;\r\n    \r\n    uint public numOf_AllDays;\r\n    uint public numOf_AuctionDays;\r\n    uint public amountSellPerDay;\r\n    uint public curDay;   \r\n    \r\n    uint decimalVar;\r\n    uint breakOverCounter = 0;\r\n    \r\n    mapping (uint => uint) public dayAuction;\r\n    mapping (uint => uint) public daysBreakOver;\r\n    mapping (uint => uint) public  dailyTotals;\r\n    \r\n    mapping (uint => mapping (address => uint)) public userContribution;\r\n    mapping (uint => mapping (address => bool)) public claimed;\r\n    \r\n    event Buy (uint window, address user, uint amount);\r\n    event Claim (uint window, address user, uint amount); \r\n    \r\n    modifier auctionActive() {\r\n        require(NowTime >= timeStartAuction && NowTime <= timeFinalizeAuction);\r\n        _;\r\n    }\r\n    \r\n     /*\r\n    function NewsCrowdsale() public { \r\n        \r\n        numberOfDays = 160;\r\n        curDay = 0; \r\n        decimalVar = 1 ether; \r\n          \r\n        timeDeploy = NowTime;\r\n        dayAuction[1] = timeDeploy + 80 days; \r\n        timeStartAuction = dayAuction[1]; \r\n    }*/\r\n\r\n    // TEST\r\n    function updateTime(uint _i) public {\r\n        NowTime = now + _i * 1 days;\r\n    }\r\n\r\n    function TESTNewsCrowdsale() public { \r\n        updateTime(0);\r\n        numOf_AllDays = 160;\r\n        curDay = 0; \r\n        decimalVar = 1 ether; \r\n          \r\n        timeDeploy = NowTime;\r\n        dayAuction[1] = timeDeploy + 80 days; \r\n        timeStartAuction = dayAuction[1]; \r\n    }\r\n\r\n    //TEST\r\n\r\n    function setTokenAddress(address tokenAddress) public {\r\n        require(token == address(0));\r\n        token = tokenAddress;\r\n\r\n        amountSellPerDay = IToken(token).balanceOf(this) / numOf_AllDays * decimalVar;\r\n    }\r\n     \r\n    \r\n    function initDays() public {\r\n        require(timeFinalizeAuction == 0);\r\n         \r\n        uint i = 1;\r\n        while (i < numOf_AllDays) {  \r\n            \r\n            uint j = 1;\r\n            for (;j < numOf_AuctionDays; j++) {\r\n                dayAuction[i + j] = dayAuction[i + j - 1] + 1 days; \r\n            }\r\n            i += j;\r\n            \r\n            dayAuction[i] = dayAuction[i - 1] + 81 days; \r\n            daysBreakOver[breakOverCounter] = dayAuction[i-1] + 1 days;\r\n            breakOverCounter++; \r\n        } \r\n        \r\n        breakOverCounter = 0; \r\n        timeFinalizeAuction = dayAuction[numOf_AllDays] + 1 days;\r\n    }\r\n    \r\n    function () payable external {\r\n       buy();\r\n    }  \r\n    \r\n    function buy() payable public auctionActive {   \r\n        uint today = NowTime; \r\n\r\n        setCurrentDay(today);\r\n        assert(notPause(today));\r\n \r\n        userContribution[curDay][msg.sender] += msg.value;\r\n        dailyTotals[curDay] += msg.value; \r\n        \r\n        ownerWallet.transfer(msg.value);\r\n        \r\n        Buy(curDay, msg.sender, msg.value);\r\n    } \r\n    \r\n    function setCurrentDay(uint today) private {\r\n         while (today >= dayAuction[curDay + 1] && curDay < numOf_AllDays) {\r\n            curDay++;\r\n        }  \r\n        if (curDay % numOf_AuctionDays != 0) {\r\n            breakOverCounter = curDay / numOf_AuctionDays;\r\n        } \r\n    }\r\n\r\n    function notPause(uint _now) private returns(bool) {\r\n        if (_now > daysBreakOver[breakOverCounter] && _now < dayAuction[curDay + 1] ) {\r\n            return false;\r\n        }\r\n        return true;\r\n    }\r\n\r\n    \r\n    function getQuantitySoldEveryDay() public view returns(uint) {\r\n        return amountSellPerDay / numOf_AllDays / decimalVar;\r\n    } \r\n    \r\n    function getCurrentDay() public view returns(uint) {\r\n        uint dayCounter = curDay;\r\n        \r\n        while (now > dayAuction[dayCounter + 1]) {\r\n            dayCounter++;\r\n        } \r\n        return dayCounter;\r\n    }\r\n\r\n    function getNumberOfAuctionDays() public view returns(uint) {\r\n        return numOf_AllDays;\r\n    }\r\n    \r\n    //---------------------------test-method-buy/claim-----------------------\r\n    \r\n    uint testLastDay;\r\n     function testSetUserContribut(uint day) public payable {\r\n        userContribution[day][msg.sender] += msg.value;\r\n        dailyTotals[day] += msg.value; \r\n        \r\n        Buy(curDay, msg.sender, msg.value);\r\n        testLastDay = day;\r\n        curDay = day + 1;\r\n    }\r\n     function testClaim(uint day) public { \r\n        if (claimed[day][msg.sender] || dailyTotals[day] == 0) {\r\n            return;\r\n        } \r\n\r\n        uint price        = amountSellPerDay / dailyTotals[day];\r\n        uint userPersent  = price * userContribution[day][msg.sender];\r\n        uint reward       = userPersent / decimalVar; \r\n\r\n        claimed[day][msg.sender] = true;\r\n        IToken(token).transfer(msg.sender, reward);\r\n\r\n        Claim(day, msg.sender, reward);\r\n    } \r\n    \r\n    function testClaimAll() external { \r\n        for (uint i = 1; i <= testLastDay; i++) {\r\n            testClaim(i);\r\n        } \r\n    }  \r\n\r\n    //-----------------------------test-method-initDays-------------------\r\n      \r\n    function TestinitDays() public {\r\n        require(timeFinalizeAuction == 0);\r\n         \r\n        uint j; \r\n        for(uint i = 1; i < numOf_AllDays;) {  \r\n            \r\n            j = 1;\r\n            while (j < 10) {\r\n                dayAuction[i + j] = dayAuction[i + j - 1] + 1 seconds; \r\n                j++;\r\n            }\r\n            i += j;\r\n            \r\n            dayAuction[i] = dayAuction[i - 1] + 81 seconds; \r\n            daysBreakOver[breakOverCounter] = dayAuction[i-1] + 1 seconds;\r\n            breakOverCounter++; \r\n        } \r\n        \r\n        breakOverCounter = 0; \r\n        timeFinalizeAuction = dayAuction[160] + 1 seconds;\r\n    }\r\n    function getNowTime() public returns(uint) {\r\n        return NowTime;\r\n    }\r\n    function time() public returns(uint) {\r\n        return now;\r\n    }\r\n}",
  "sourcePath": "F:\\Ethereum_data\\_My_Scripts_ICO\\Illuminates_NewsToken\\illuminates_2\\contracts\\TESTNewsCrowdsale.sol",
  "compiler": {
    "name": "solc",
    "version": "0.4.18+commit.9cf6e910.Emscripten.clang"
  },
  "schemaVersion": "1.0.1",
  "updatedAt": "2018-03-17T12:21:47.638Z"
}